:020000040800F2
:10000000380C00209D010008A5010008A701000888
:1000100000000000000000000000000000000000E0
:10002000000000000000000000000000A90100081E
:100030000000000000000000AB0100087D1E000869
:10004000AF010008AF010008AF010008AF010008D0
:10005000AF01000841140008AF0100086114000856
:1000600000000000AF010008AF010008AF01000868
:10007000AF010008AF010008AF010008AF010008A0
:10008000B11F0008AF01000800000000AF01000828
:10009000AF010008AF010008AF010008AF01000880
:1000A000AF010008AF010008AF010008D51F00082C
:1000B000AF010008AF01000800F002F800F042F8BC
:1000C0000CA030C8083824182D18A246671EAB466D
:1000D00054465D46AC4201D100F034F87E460F3EF6
:1000E0000FCCB6460126334200D0FB1AA246AB46DF
:1000F000334318473825000058250000103A02D332
:1001000078C878C1FAD8520701D330C830C101D5B8
:1001100004680C60704700000023002400250026BE
:10012000103A01D378C1FBD8520700D330C100D5B3
:100130000B6070471FB50098019900F0B0F91FBD22
:1001400010B510BD00F005FA1146FFF7F3FF02F0FD
:10015000D2F800F01DFA03B4FFF7F2FF03BC00F081
:100160004DFA000070B505460C46164602E00FCC6D
:100170000FC5103E102EFAD2082E02D303CC03C5B1
:10018000083E042E07D301CC01C5361F03E02178B9
:100190002970641C6D1C761EF9D270BD074880471B
:1001A00007480047FEE7FEE7FEE7FEE7FEE7FEE75B
:1001B00004480549054A064B70470000351F0008F2
:1001C000B900000838040020380C0020380800204E
:1001D0003808002070B5064600F044F9056830463E
:1001E0000B30C408E400B44201D8002070BD686838
:1001F0002A46002818D00168A14211D30B46214697
:1002000008318B4208D3436801194B6003681B1BFC
:100210000B605160046001E041685160001D70BDD9
:10022000024640680028E6D12146284600F022F91F
:100230000028DCD170BD70B50446051F00F012F92E
:100240000068002C1AD0446801E020466468002C45
:1002500001D0AC42F9D301680A18AA4204D12A6835
:1002600005468918016000E0456028684119A142EF
:1002700005D16168696021684018286070BD6C60B4
:1002800070BDF8B5042A2CD3830712D00B78491C13
:100290000370401C521E83070BD00B78491C03705F
:1002A000401C521E830704D00B78491C0370401C6D
:1002B000521E8B079B0F05D0C91ADF002023DE1BBF
:1002C00008C90AE0FFF74EFFF8BD1D4608C9FD400A
:1002D0001C46B4402C4310C0121F042AF5D2F30868
:1002E000C91A521EF0D40B78491C0370401C521ED0
:1002F000EAD40B78491C0370401C012AE4D4097825
:100300000170F8BD002203098B422CD3030A8B42F3
:1003100011D300239C464EE003460B433CD40022FD
:1003200043088B4231D303098B421CD3030A8B420F
:1003300001D394463FE0C3098B4201D3CB01C01ADD
:10034000524183098B4201D38B01C01A52414309A8
:100350008B4201D34B01C01A524103098B4201D396
:100360000B01C01A5241C3088B4201D3CB00C01A03
:10037000524183088B4201D38B00C01A524143087B
:100380008B4201D34B00C01A5241411A00D20146A0
:100390005241104670475DE0CA0F00D04942031039
:1003A00000D34042534000229C4603098B422DD388
:1003B000030A8B4212D3FC22890112BA030A8B4230
:1003C0000CD3890192118B4208D3890192118B427F
:1003D00004D389013AD0921100E08909C3098B4204
:1003E00001D3CB01C01A524183098B4201D38B0147
:1003F000C01A524143098B4201D34B01C01A5241EA
:1004000003098B4201D30B01C01A5241C3088B422E
:1004100001D3CB00C01A524183088B4201D38B0019
:10042000C01A5241D9D243088B4201D34B00C01AA3
:100430005241411A00D20146634652415B101046B8
:1004400001D34042002B00D54942704763465B1000
:1004500000D3404201B50020C046C04602BD7047EF
:100460007047704700487047DC03002070477047B2
:100470007047704738B504460A4600206946C046B2
:10048000C046002805D002462046009900F040F8FA
:10049000012038BD10B5012000F054F810BDF8B5AA
:1004A000C046C046054600200C461020C046064601
:1004B000A819A0420DD9324669460020C046C04660
:1004C000070001D100F03EF80098A04200D0054698
:1004D000C419FFF7C7FFF61D07460560F008C00006
:1004E0004619284600F008F8B44204D0314638686E
:1004F000A21B00F00DF8F8BD002101604160806092
:10050000704710207047000000487047D403002057
:1005100010B50346406801E003464068002801D05A
:100520008842F9D31868C3188B4206D0CB1CD80870
:10053000C000001D411A521A0146081D0A60FFF74B
:100540007AFE10BD10B500F031F800F029F810BDAA
:1005500070477546FFF7D8FFAE460500694653461B
:10056000C008C000854618B020B5FFF721FE60BC6A
:1005700000274908B6460026C0C5C0C5C0C5C0C5CD
:10058000C0C5C0C5C0C5C0C5403D49008D46704707
:1005900010B50446C046C0462046FFF7DCFD10BD3E
:1005A00010B5002801D000F029F810BD10B50128C1
:1005B00005D0002103A000F027F8012010BD09A1FB
:1005C000F8E7000053494752544D454D3A204F75C6
:1005D00074206F662068656170206D656D6F72793B
:1005E000000000003A2048656170206D656D6F72F3
:1005F0007920636F72727570746564000149182008
:10060000ABBEFEE72600020070B505460C460A2088
:1006100000E06D1C00F012F8002D06D028780028AC
:10062000F7D102E0641C00F009F8002C02D0207819
:100630000028F7D10A2000F001F870BD08B569461E
:1006400008700320ABBE08BD0146192234488078EB
:10065000002821D13348814203DD0420304B9870BB
:100660005BE03048A038814206DD2E48814203DC41
:1006700003202B4B987050E02A48FA38814207DD5E
:100680002848A038814203DC0220254B987044E0C2
:100690000120234B987040E021488078042807D13E
:1006A00020481938814238DA03201D4B987034E015
:1006B0001B48807803280FD11A481930814203DD86
:1006C0000420174B987028E01648B938814224DA84
:1006D0000220134B987020E01148807802280ED138
:1006E00010488738814203DD03200D4B987014E0D9
:1006F0000D48814211DA0120094B98700DE00A483B
:100700003230814203DD0220054B987005E0074836
:10071000814202DC0020024B9870014880787047CB
:10072000B40000208C0F0000790E0000B80B000010
:1007300010B500205649087008464078002806D0B9
:10074000012823D0022841D003287DD18CE05048D5
:10075000807800280ED100F0B5FB4D49C8800846CE
:10076000C0880881C888FFF76FFF4949887008462C
:100770008078C87001224649891C022000F0D8FC0C
:10078000002043498880012048707EE040488088EE
:100790004049884219DD00203D49888000F092FBE5
:1007A0003B49C8800846C0880989884207DD384827
:1007B000C08837490989401A3549488102E000203C
:1007C000334948810220324948705EE030488088D1
:1007D0003049884231DD00202D49888000F072FBCD
:1007E0002B49C8800846C0882B49884208DD284824
:1007F0004089002804DD26484089401E244948815C
:100800002348C08822494989401A2149C88008469E
:10081000C0880881C888FFF717FF1D4988700846FF
:100820008078C978884208DD194880781849C870EE
:100830000122891C022000F07BFC00F08BFB0328C6
:1008400011D10520124900E01EE08870084680782A
:10085000C8700122891C022000F06AFC00200C49AB
:1008600088800320487010E0094880880949884240
:1008700009DD00200649888000F024FB0449C88077
:100880000846C088088100E000BF00BF10BD00001E
:10089000B4000020881300006310000010B5002091
:1008A0002649487008460078002802D0012842D125
:1008B0001DE02248807800280ED100F003FB1F497C
:1008C000C8800846C0880881C888FFF7BDFE1B495C
:1008D000887008468078C87000221146104600F0E3
:1008E00027FC0020154988800120087024E0134867
:1008F00080887D21C90088421CDD00200F49888046
:1009000000F0E0FA0D49C8800846C0880881C88810
:10091000FFF79AFE0949887008468078C9788842AE
:1009200008DA064880780549C8700022114604207C
:1009300000F0FEFB00E000BF00BF10BDB4000020CF
:1009400010B500F0BFFA10BD10B504460948808804
:100950000949884204DA07488088401C0549888094
:1009600000F0FEFA002802D1FFF798FF01E0FFF740
:10097000DFFE10BDB4000020FFFF000010B500F046
:10098000AFFA00F0F7FA00230122FF21F531034806
:1009900000F08AFC0249086010BD00004909000807
:1009A00028000020F8B505461F4800F09BFB0128F1
:1009B00000D1F8BD1C480078030001F00FFB0504CE
:1009C0000E0F1A2F3000FFF7BBFF0646FFF73CFE65
:1009D0000446204600F0C6F922E021E0124844789F
:1009E000052C02D100F058F802E0204600F06CF827
:1009F00016E00D484478FFF7A3FF0746FFF724FEF3
:100A0000064600F0ADFA002807D1012C03D130468C
:100A100000F0A8F901E000F093F901E000E000BF68
:100A200000BF00BFC5E700006000002010B5002334
:100A300001221946014800F037FC10BDA509000845
:100A400010B5024800F014FB10BD0000510A000868
:100A500038B5044600F002FB0090012269460320ED
:100A600000F066FB38BD000010B5002009490860A1
:100A70000846083000F027FB06480A3000F023FB48
:100A800004480C3000F01FFB02480E3000F01BFB46
:100A900010BD0000A400002010B500200949086026
:100AA0000846083000F016FB06480A3000F012FB3A
:100AB00004480C3000F00EFB02480E3000F00AFB38
:100AC00010BD0000A400002010B504460020174906
:100AD000888088710846083000F0F5FA13480A301B
:100AE00000F0F1FA11480C3000F0EDFA0F480E302A
:100AF00000F0E9FA012C11D0022C0BD0032C05D008
:100B0000042C0FD10A48094908600CE0094807493C
:100B1000086008E008480549086004E00748034900
:100B2000086000E000BF00BF10BD0000A40000206E
:100B3000650C0008D10B0008750B0008410B00087C
:100B400010B50B488088FA2811DB002008498880FE
:100B50000846083000F0ACFA002804D004480830F9
:100B600000F0B8FA03E00248083000F0ACFA10BD1B
:100B7000A400002010B515488088FA2825DB002045
:100B80001249888008468079002802D001281AD1AD
:100B90000DE00E48083000F09DFA0C480A3000F0D5
:100BA00092FA0A488079401C084988710CE007488D
:100BB000083000F088FA05480A3000F08BFA00206F
:100BC0000249887100E000BF00BF10BDA4000020F2
:100BD00010B523488088FA2841DB0020204988800E
:100BE00008468079002804D0012814D0022834D186
:100BF00023E01B48083000F06DFA19480A3000F075
:100C000062FA17480C3000F05EFA15488079401CF3
:100C10001349887122E01248083000F054FA104855
:100C20000A3000F057FA0E480C3000F04CFA0C482D
:100C30008079401C0A49887110E00948083000F0AA
:100C400042FA07480A3000F03EFA05480C3000F03E
:100C500041FA00200249887100E000BF00BF10BDCA
:100C6000A400002010B535488088FA2865DB0020F4
:100C70003249888008468079002806D001281AD099
:100C800002282ED0032856D141E02C48083000F02D
:100C900021FA2A480A3000F016FA28480C3000F0F1
:100CA00012FA26480E3000F00EFA24488079401CD3
:100CB0002249887140E02148083000F004FA1F48BA
:100CC0000A3000F007FA1D480C3000F0FCF91B4810
:100CD0000E3000F0F8F919488079401C17498871E6
:100CE0002AE01648083000F0EEF914480A3000F007
:100CF000EAF912480C3000F0EDF910480E3000F01F
:100D0000E2F90E488079401C0C49887114E00B48C8
:100D1000083000F0D8F909480A3000F0D4F9074843
:100D20000C3000F0D7F905480E3000F0D3F9002060
:100D30000249887100E000BF00BF10BDA400002080
:100D400010B507480078102806D00548007800F054
:100D5000D9FA102002490870FFF786FE10BD000086
:100D60002400002010B5044600202E490860012C04
:100D700038D0022C25D0032C12D0042C43D10846A5
:100D8000083000F0A7F927480A3000F0A3F92548F9
:100D90000C3000F09FF923480E3000F09BF933E04F
:100DA0002048083000F096F91E480A3000F092F909
:100DB0001C480C3000F08EF91A480E3000F083F910
:100DC00022E01848083000F085F916480A3000F093
:100DD00081F914480C3000F076F912480E3000F01A
:100DE00072F911E00F48083000F074F90D480A302C
:100DF00000F069F90B480C3000F065F909480E3035
:100E000000F061F900E000BF00BF0748007800F083
:100E100079FA00220549064800F0FAFA02490870FA
:100E200010BD0000A4000020240000208813000052
:100E3000350E000810B50446102002490870FFF76F
:100E400013FE10BD2400002010B504460848808819
:100E50000849884204DA06488088401C0449888092
:100E600003480068002802D001490868804710BD87
:100E7000A4000020FFFF000010B500F020F90020C2
:100E80000E49087208210D48417200200B498872F2
:100E90000B210A48C1720020084908730C21074839
:100EA000417300200549887303210448C17300235E
:100EB00001221946024800F0B6FA10BDA400002035
:100EC000490E000870B500BF0120400200F012FB7F
:100ED0000546AF20000168434001040C204670BD68
:100EE00010B500F075FB10BD08B54721002000F0DB
:100EF00099F83421012000F095F89921022000F0A2
:100F000091F82621032000F08DF84021042000F004
:100F100089F89E21052000F085F8E621062000F0E2
:100F200081F84C21072000F07DF875210C2000F09D
:100F300079F8082000F03CF8009068460078C00678
:100F4000800F03494870684600784009087008BD62
:100F50003000002001484078704700003000002039
:100F600003494978002901D0012000E000207047A2
:100F70003000002010B500F025FB034800F082FC93
:100F8000FFF7B2FF10BD00008D0F000810B5064836
:100F9000007800F0B7F900223221044800F038FA56
:100FA0000149087010BD000034000020E10F000866
:100FB00038B504460020009000250AE001236A4667
:100FC0002146D42000F09EFB002800D003E0681CDE
:100FD000C5B2032DF2DB00BF6846007838BD0000C3
:100FE0001CB504460820FFF7E3FF01900920FFF736
:100FF000DFFF009068460079C006800F08494870FE
:101000006846007940090870684600788006800FBD
:101010008870684600784007400FC8701CBD00000B
:1010200030000020F8B504460D46002000906846C8
:1010300004704570002609E002226946D42000F0C1
:1010400027FC002800D003E0701CC6B2032EF3DB9F
:1010500000BFF8BD10B500F0AFFC10BD10B500F03A
:1010600055FD002801D0012400E00024204610BDD9
:1010700010B5044600F052FD024800F095FD02480C
:10108000046010BD8D1000083800002010B506481F
:10109000007800F037F90022C8210448006800F009
:1010A000B7F90149087010BD3C000020380000204D
:1010B00010B504466178207800F07CFD10BD10B5B5
:1010C00000F0AAFD10BD10B504466178207800F04C
:1010D000F5FD10BD10B504466178207800F0D2FD12
:1010E00010BD000070B505460F48017C407C814270
:1010F00017D00D48007C422250430C4A81184222EE
:101100002846FFF7BEF80849097C481CC117490F5B
:101110000918C910C900411ACAB203490A74002447
:1011200000E00124204670BDC0030020C001002063
:1011300070B503460C461748407C42256843164D5F
:101140002B54402A00DD402200210AE0655C114852
:10115000407C42267043104E8019401C4554481C68
:10116000C1B29142F2DB0B48407C422568430A4DF4
:10117000401940304270074D6D7C681CC5176D0FDB
:101180002D18ED10ED00451BEEB2024D6E740020DF
:1011900070BD0000C0030020C001002010B504464F
:1011A000002C01D1012010BD1548006884420ED1E9
:1011B000134800684069002802D11149086012E014
:1011C0000F49606908600020096808610BE06069E8
:1011D000002802D12169486105E061692069086140
:1011E0002169606948610020206060602081608121
:1011F000206160612046FFF71EF800240020D2E73E
:101200002C00002010B500F073FD024800F0A0FD96
:1012100010BD000019120008094908680DE0017BA3
:10122000012909D10189002902D00189491E0181C2
:101230000189002900D1017340690028EFD170476E
:101240002C000020FFB581B006460D461746182039
:10125000FEF7C0FF0446002C01D105B0F0BD2660AA
:101260000498606025816781002D02D001202073E1
:1012700001E00020207300202061606109480068BF
:10128000002802D10748046009E00649086800E028
:10129000406941690029FBD14461206100BF2046BB
:1012A000DBE700002C000020F8B504460D4616468A
:1012B0001F463B46324629462046FFF7C3FFF8BD8E
:1012C00010B50F48046818E0207B002814D120686E
:1012D000002811D02168606888476089002807D0FD
:1012E000207B012801D0608920810120207303E048
:1012F00024696069FFF752FF6469002CE4D110BDD6
:101300002C000020102800DB704700210201084B50
:1013100099500201D21851600201D21811810201C4
:10132000D21851810201D218117300BFECE70000FE
:10133000C000002010B500F011FD024800F058FD7B
:1013400010BD00004913000810B5002436E020014C
:101350001C494018007B00282ED02001401800892D
:10136000002807D0200140180089401E2101154A9D
:1013700089180881200113494018008900281BD1D1
:1013800020010858002806D022010B46D2185068C8
:1013900022019958884720010A49401840890028AD
:1013A00007D02001401840892101064A8918088188
:1013B00002E02046FFF7A6FF601CC4B2102CC6DB7B
:1013C00010BD0000C0000020F0B50446002018E069
:1013D00005010E4EAD192D7B002D10D10501745164
:1013E0000501AD196B600501AD1929810501AD1924
:1013F0006A8101250601054FF619357303E0451C86
:10140000E8B21028E4DB00BFF0BD0000C0000020FF
:1014100070B505460E46144623460022314628463E
:10142000FFF7D2FF70BDF8B504460D4616461F46BD
:101430003B46324629462046FFF7C6FFF8BD00006E
:1014400010B506484069022108404008002804D031
:1014500002200249486100F049F910BD0004014032
:1014600010B506484069202108404009002804D0F2
:1014700020200249486100F08BFB10BD00040140B0
:10148000FEB504460F4600261CE0002514E0680067
:10149000215A681C4000205A81420BDD6800205A06
:1014A0000190681C4000205A69006052691C490084
:1014B00001986052681CC5B2781E801BA842E6DC09
:1014C000701CC6B2BE42E0DB00200090022606E09F
:1014D0007000215A009808180090701CC6B2B81EFF
:1014E000B042F5DC391F0098FEF70CFF80B2019086
:1014F0000198FEBD30B589B0054607222946184837
:1015000000F0D4FD164800F0B3FD154880680121B5
:1015100008431349886000BF11480068C007C00F26
:101520000028F9D00E4800F0CEFD00240FE000BFE7
:101530000B4800680421084080080028F8D00848BB
:1015400040300068610001AA5052601CC4B2102CE7
:10155000EDD3102101A8FFF793FF09B030BD0000C3
:101560000024014000B587B0134840690121890477
:1015700008431149486108468069491508430E49E6
:101580008861C02202210D4800F013FE0C4800F0D3
:10159000A3FD01A800F08FFD002001900120694605
:1015A0000872002003900590069001A9044800F0FD
:1015B000B7FD07B000BD0000001002400004004865
:1015C0000024014010B500F05DF800F01DF810BDDA
:1015D00010B50B4840690121890408430849486156
:1015E0004B220821074800F0E4FD0820054920317E
:1015F0000881FFF7B7FF01204002FFF77BFF10BD16
:10160000001002400004004800B587B01A48406945
:10161000012149040843184948610846C06901216D
:10162000490508431449C861042249150920C00628
:1016300000F08CFD042211020920C00600F086FD96
:101640009D22032149020920C00600F0B2FD0020BE
:101650000390019002900490059006900748009036
:101660006946074800F004FE054800680121084368
:101670000349086007B000BD00100240130F42107C
:101680000054004008B51648406901218905084307
:10169000134948610846806901210843104988615F
:1016A000002202210F4800F084FD0121052000F0F6
:1016B000FBFE0D480068022108430B4908600846FC
:1016C000C068022108430849C860052168460170C6
:1016D000002141700121817000F020FE08BD000052
:1016E00000100240001400480004014010B50448F6
:1016F0000068002802D002480068804710BD000042
:1017000048000020FFB581B00E4617461D46052053
:1017100040035A49086008E058490868411E574A82
:101720001160002801D105B0F0BD55488069012144
:10173000C9030840C00B0028EED15148019900F0C0
:10174000D2FD00214E4800F0C7FD01214C4800F0B9
:1017500082FD4B48406801214903084348494860DD
:10176000052040034549086007E044490868411ED8
:10177000424A1160002800D1D5E741488069022122
:10178000084040080028F0D03D488662052040030C
:101790003A49086007E039490868411E374A116034
:1017A000002800D1BFE73648806940210840800901
:1017B0000028F0D03248019900F095FD01218902FE
:1017C0002F4800F089FDE9B22D4800F044FD2C4877
:1017D000406801214903084329494860002417E073
:1017E000052040032549086007E024490868411E98
:1017F000224A1160002800D195E721488069042120
:10180000084080080028F0D01D48406A3855641C04
:10181000AC42E5D1052040031849086007E01749AC
:101820000868411E154A1160002800D17BE7144862
:1018300080694021084080090028F0D010484068A5
:10184000090208430E494860052040030B4908601F
:1018500007E00A490868411E084A1160002800D1C3
:1018600061E7074880692021084040090028F0D03E
:1018700020200349C861012055E700004C000020EA
:1018800000540040014908607047000048000020F3
:10189000F8B506460F461446002505204003384992
:1018A000086007E036490868411E354A1160002883
:1018B00000D1F8BD334880690121C9030840C00B3D
:1018C0000028EFD131462F4800F00DFD00212D48B2
:1018D00000F002FD21462B4800F0BDFC294840687D
:1018E0000121490308432749486017E005204003C8
:1018F0002349086007E022490868411E204A116018
:10190000002800D1D5E71F4880690221084040081F
:101910000028F0D0785D1B4988626D1CA542E5D196
:10192000052040031649086007E015490868411E74
:10193000134A1160002800D1BBE71248806940219A
:10194000084080090028F0D00E484068090208438A
:101950000C49486007E00A490868411E084A1160BE
:10196000002800D1A5E707488069202108404009E8
:101970000028F0D020200349C861012099E7000029
:101980004C0000200054004010B50A484069012175
:101990008904084307494861084640690121490410
:1019A0000843044948611022D1020920C00600F012
:1019B00000FC10BD0010024010B5FFF7E5FF00F07D
:1019C00049F810BD10B51E48C06980210840C00903
:1019D000002827D01B480088002810DD1A4800681E
:1019E000007817492031088117480068401C1649C3
:1019F000086014480088401E1249088012E0002048
:101A00001149086011480068002805D00F48006897
:101A1000804700200D4908600948006880218843FC
:101A2000074908600648C06920210840400900288D
:101A300004D00348203080880549087010BD00009C
:101A4000003801405C0000205800002054000020B5
:101A50005E00002000B587B0294840690121890453
:101A600008432749486108468069012189030843E2
:101A70002349886100224021224800F067FB8F2221
:101A80004021204800F095FB00BF1D48C06801219F
:101A9000890308431A49C8600846C06801218903C0
:101AA00088431749C86000BFE12040020090002031
:101AB00001900290039005900C2004906946124812
:101AC00000F04EFD10488068082108430E498860E8
:101AD0001B2168460176002141760121817606A806
:101AE00000F01CFC08480068012108430649086012
:101AF00008460068202108430349086007B000BD7C
:101B00000010024000040048003801400248008AEA
:101B100020210840400970470004004808B51948D2
:101B200040690121890408431649486108468069D3
:101B3000012108431349886110222021124800F036
:101B400038FB0521012000F0AFFC1048006820217F
:101B500008430E49086008468068202108430B4965
:101B600088600846C068202108430849C8600721EA
:101B700068460170002141700121817000F0CEFBA8
:101B800008BD0000001002400004004800040140AD
:101B900010B504480068002802D002480068804759
:101BA00010BD00005000002001490860704700008F
:101BB0005000002010B50246002A0CD10923DB0694
:101BC0001B8A01248C402340002B01D0012300E01C
:101BD000002318461AE0012A0BD10D4B1B8A012461
:101BE0008C402340002B01D0012300E00023184645
:101BF0000CE0052A0AD1074B1B8A01248C402340A4
:101C0000002B01D0012300E00023184610BD000086
:101C1000000400480014004810B51948406901212B
:101C2000490408431649486108200921C90688610A
:101C30004B2208210920C00600F0BBFA0120000356
:101C40000921C90688614B2201460920C00600F01F
:101C5000B0FA0120C0020921C90688614B22014661
:101C60000920C00600F0A5FAFF2001300921C906AD
:101C700088614B2201460920C00600F09AFA10BD87
:101C800000100240002804D101228A40084B1A812A
:101C90000CE0012804D101228A40064B1A8105E09C
:101CA000052803D101228A40034B1A8170470000A6
:101CB000200000482004004820140048002805D1D6
:101CC00001228A400923DB069A610CE0012804D135
:101CD00001228A40044B9A6105E0052803D10122C4
:101CE0008A40024B9A617047000400480014004883
:101CF00010B500F0C7F87D21C9000C480068FEF758
:101D000001FB0446601E0A49884200D90CE0601EAF
:101D1000084948610321081F00F06EF900200549B9
:101D200088610720086100BF10BD0000000000208E
:101D3000FFFFFF0000E000E010B504480068002845
:101D400002D002480068804710BD0000400000201B
:101D50000149086070470000400000201FB50024C2
:101D60001948C069022108431749C8611749184832
:101D70000068FEF7C7FA401E84B27D20C0000290C2
:101D80000021684681808181C18001A9114800F04D
:101D9000A1FB012221460F4800F0DEFB102168461E
:101DA0000170002141700121817000F0B7FA0948EB
:101DB000C068012108430749C8600846006801213E
:101DC0000843044908601FBD0010024040420F0054
:101DD000000000200004004010B5044800680028FE
:101DE00002D002480068804710BD00004400002077
:101DF00001490860704700004400002011201D497F
:101E000008601D4840681C494860084640684860B2
:101E1000084640687B21C903884317494860084643
:101E200040680521C9040843134948600846006812
:101E30000121090608431049086000BF0E480068E8
:101E40000121490608400028F8D00B484068800866
:101E50008000094948600846406802210843064955
:101E6000486000BF044840680C2108400828F9D1A8
:101E700070470000002002400010024010B5FFF73C
:101E80005BFF10BDF8B5002500240026002724487C
:101E900040680C2108400546002D04D0042D06D0D2
:101EA000082D2AD107E01F481F49086029E01D4876
:101EB0001D49086025E01A4840680F218904084040
:101EC0000446174840680321C90308400646A00C91
:101ED000841C002E04D115486043134908600BE0B0
:101EE0000F48C06A0007000F471C39460D48FEF72F
:101EF00009FA60430C49086003E00A480A4908608F
:101F000000BF00BF06484068F021084000090849AA
:101F10000D5C05480068E84003490860F8BD000012
:101F20000010024000127A000000002000093D006D
:101F30000400002010B51B4800680121084319491E
:101F40000860084640681849084016494860084635
:101F500000681649084013490860084600680121D6
:101F6000890488430F490860084640683F210904F6
:101F700088430C4948600846C06A00090001C862ED
:101F80000846006BFF215431884306490863084620
:101F9000406B40084000486300208860FFF72EFF38
:101FA00010BD0000001002400CB8FF08FFFFF6FE55
:101FB00010B506480069C007C00F002804D00448C7
:101FC00002490861FFF708FF10BD0000000400404F
:101FD000FEFF000010B5FFF7F5FC10BD30B47446ED
:101FE000641E2578641CAB4204D3635D5B00E31878
:101FF00030BC18471D46F8E710B5002819DB1A4A0F
:1020000003231B02D21883089B00D2588307DC0EDF
:10201000FF23A3409A438B071B0E8407E40EA340C3
:102020001A43114B032424021B198408A4001A51DB
:1020300018E00E4A03071B0F083B9B089B00D25871
:102040008307DC0EFF23A3409A438B071B0E8407F4
:10205000E40EA3401A43054B0407240F083CA408D0
:10206000A4001A5110BD000000E100E01CED00E0EA
:1020700030B501460020002200238C680125ED07C1
:102080002C438C6000BF8C68E30FDB07521C0F24CD
:102090002403A24201D0002BF5D18C68E40FE407A1
:1020A000002C01D1086C00E0002030BD836A0B4396
:1020B0008362426170470021016001718160C160EB
:1020C000016141617047816810221143816081681C
:1020D00004221143816070470E49884218D10E498D
:1020E000C968421511430C4AD1601146C9684215AE
:1020F0009143094AD1600021016041608160C16063
:102100000161416105490162002181620164416010
:102110007047000000240140001002400000FF0F43
:1021200010B50B795B030A681A438B681A43CB68B6
:102130001A430B691A434B691A43C368024C234084
:102140001A43C26010BD000003D2FFFF7CB50346F6
:1021500000200024009401941C6A00945C6A01949D
:1021600020E0CC07E40F002C19D0C410A4006D4669
:102170002D594407E60E0724B440A543C410A4001B
:102180006E463551C410A4006D462C594507EE0E1D
:102190001546B5402C43C510AD006E467451441C25
:1021A000E0B249100029DCD1009C1C62019D5D62F7
:1021B0007CBDF0B586B0002300240025039504956E
:1021C0000595C0251540AD090295302515402D090E
:1021D00001950C2515400095009D0C2D03D1858897
:1021E0000D43858005E0009D082D02D185888D4333
:1021F00085801DE0CD07ED0F002D16D05E00032574
:10220000B5402C439507AD0F5E00B540039E3543A6
:1022100003955F00029DBD40049E2E4304965F001F
:10222000019DBD40059E2E4305965D1CEBB24910F5
:102230000029DFD18568A543039E35438560056885
:10224000A543049E35430560C568A543059E3543F7
:10225000C56006B0F0BD10B54268FF231B049A4369
:102260000B04FF24240423401A43426010BD0000E5
:1022700010B502685208520002608B681B024A685F
:102280001A4303681F242402A3431A4302600F2346
:102290001B060A689A430261026801231A4302601E
:1022A0000B698A691A4383680A4C23401A43826087
:1022B00082680123DB031A4382600268CB681A43F9
:1022C000026042680123DB039A434B691A43426070
:1022D00010BD00000078FFFF426801239B029A4373
:1022E0000A43426070474268920A92028B059B0D36
:1022F0001A4342607047FEF785FFFFF71BF8FEF7B1
:10230000A9FEFEF79DFBFEF739FBFEF7B5FDFEF7D4
:102310008DFB01E0FEF7D4FFFCE700008178002987
:1023200025D01749032212028918027892109200D0
:10233000895802789207D30EFF229A40914342783F
:102340009207120E03789B07DB0E9A4011430C4A4A
:1023500003231B02D21803789B109B00D1500178F5
:10236000CA06D20E01219140054A116007E00178AA
:10237000CA06D20E01219140014A80321160704795
:1023800000E100E0FEB50446002500200290002791
:10239000002601900090404840680C210840054606
:1023A000002D04D0042D05D0082D2BD105E03B488D
:1023B00020602AE03948206027E0374840680F2134
:1023C000890408400646344840680321C903084090
:1023D0000190B00C861C0198002804D13046304989
:1023E000484300900BE02C48C06A0007000F401CD7
:1023F00002902A480299FDF785FF704300900098EB
:10240000206002E02548206000BF00BF22484068ED
:10241000F021084005462D092248475D2068F84014
:1024200060601D48406807210902084005462D0AE2
:102430001C48475D6068F840A0601748006B102199
:102440000840102802D01548E06001E02068E060F4
:102450001148006B8007800F002802D1A06820611E
:1024600019E00D48006B8007800F012802D1206819
:10247000206110E00848006B8007800F022802D11D
:102480008003206107E00448006B8007800F032869
:1024900001D102482061FEBD0010024000127A0006
:1024A00000093D001400002070B5002200238A10AE
:1024B0008C07230F064C950064590F259D40AC43B3
:1024C00005469D402C43024D9600AC5170BD000066
:1024D000080001401A4A904206D001229207904219
:1024E00002D0184A904205D1026870239A434B8863
:1024F0001A430260144A904206D0026803231B026A
:102500009A430B891A4302604A68C2620A8882624F
:102510000B4A904208D00D4A904205D00C4A904296
:1025200002D00C4A904208D14A88102A03D18A7AF4
:10253000521C026301E08A7A026301224261704701
:10254000002C014000040040001000400040014009
:102550000044014000480140816242617047000030
:10256000F0B587B004460D460026002700200690EF
:102570002068400840002060606803210903884308
:10258000A96808436060E9686868084329690843E6
:102590002168234A114008432060A06803210902F2
:1025A000884369690843A06001A8FFF7EBFE1D4856
:1025B000844201D1059F00E0039F20680121C903E7
:1025C000084000280AD078002968FDF79BFE0646DF
:1025D00078002968FDF796FE069109E038462968DB
:1025E000FDF790FE064638462968FDF78BFE0691FA
:1025F000286841080698814200D8761C206801218D
:10260000C9030840002808D03007400F0690304624
:1026100005490840069908430646A68107B0F0BD63
:10262000F3E9FFFF00380140F0FF00004C260008EE
:102630000000002060000000FC000008AC2600083C
:1026400060000020D80B000018010008006CDC02BC
:102650000000000000000000010203040607080952
:102660000000000001020304010203040607080938
:10267000100000000000000000000000000000004A
:10268000100000000000000010000000000000002A
:10269000000000000000000000A00000000000009A
:0C26A0000000000000000000000000002E
:04000005080000B936
:00000001FF
