:020000040800F2
:10000000F0040020D1000008D9000008DB0000083F
:1000100000000000000000000000000000000000E0
:10002000000000000000000000000000DD000008EB
:100030000000000000000000DF000008E5030008E9
:10004000E3000008E3000008E3000008E300000804
:10005000E3000008E3000008E3000008E3000008F4
:1000600000000000E3000008E3000008E3000008CF
:10007000E3000008E3000008E3000008E3000008D4
:10008000E3000008E300000800000000E3000008AF
:10009000E3000008E3000008E3000008E3000008B4
:1000A000E3000008E3000008E3000008E3000008A4
:1000B000E3000008E30000080448854600F03EF82D
:1000C0000048004739060008C046C046F00400203A
:1000D0000448804704480047FEE7FEE7FEE7FEE7E6
:1000E000FEE7FEE7ED030008B900000830B50B4657
:1000F000014600202022012409E00D46D5409D4202
:1001000005D31D469540491B254695404019154687
:10011000521E002DF1DC30BD03460B439B0703D07C
:1001200009E008C9121F08C0042AFAD203E00B78BC
:100130000370401C491C521EF9D27047064C012521
:10014000064E05E0E36807CC2B430C3C984710347F
:10015000B442F7D3FFF7B4FF300700086007000888
:1001600010B5002406E00649601800F07EF8012072
:100170008002241803484068A042F4D810BD000053
:1001800000100008D4000020F8B505460E460024F3
:100190000F480090684600F09BF813E028786D1C2B
:1001A000444000270CE0E007C00F002805D0601095
:1001B000694609884840044600E06410781CC7B2CC
:1001C000082FF0DB3046761E0028E7D12046F8BD28
:1001D00005800000F7B582B00D461646B003000C4E
:1001E000019000F0F7F9002422E0A000295C6846A5
:1001F0000170A000401C295C68464170A000801C72
:10020000295C68468170A000C01C295C6846C170EA
:100210000099029800F0F0F90746012F03D10298E7
:10022000001D029002E0384605B0F0BD601C84B2AB
:1002300001988442D9DB0020C0430090002407E0ED
:10024000019880004019005D69460855601C84B221
:10025000B007800FA042F3D80099029800F0CCF9C3
:10026000074600F06BF93846DEE770B5044600F04B
:10027000B1F9204600F088F9054600F05FF92846FC
:1002800070BD000010480069802108430E490861D4
:1002900008460069491588430B49086100BF0B48AF
:1002A000806A012149040843084988620846806A37
:1002B0000121490488430549886200BF1420486130
:1002C00000208861704700000020024000100240BA
:1002D00030B5014600220B8800200CE00124844048
:1002E0001C40002C05D00F24251A0124AC401443D7
:1002F000A2B2441CE0B21028F0DB0A8030BD00003E
:1003000010B5C02212491348FFF706FF10480068D5
:10031000000C000401214907884217D10E480068EB
:10032000032108430C490860FFF7ACFF0848406808
:100330000A490860084600680949086004490868D5
:1003400080F3088800BF06480068804710BD0000A1
:10035000001000080000002000000140E400002020
:10036000E000002011201D4908601D4840681C491C
:100370004860084640684860084640687B21C903D9
:10038000884317494860084640680521C904084366
:1003900013494860084600680121090608431049CE
:1003A000086000BF0E480068012149060840002887
:1003B000F8D00B484068800880000949486008462A
:1003C0004068022108430649486000BF044840686D
:1003D0000C2108400828F9D1704700000020024095
:1003E0000010024000B500F097F900BD10B51B48A1
:1003F0000068012108431949086008464068184907
:1004000008401649486008460068164908401349E4
:100410000860084600680121890488430F49086084
:10042000084640683F21090488430C494860084653
:10043000C06A00090001C8620846006BFF21543100
:100440008843064908630846406B400840004863FB
:1004500000208860FFF786FF10BD000000100240FA
:100460000CB8FF08FFFFF6FE002006E00449411823
:100470000978044A1154411CC8B20828F6D37047C1
:1004800000F80008D400002010B50448FFF7EDFE86
:10049000082203490148FFF79DFE10BD00F800083F
:1004A000D400002010B5002819DB1A4A03231B02D0
:1004B000D21883089B00D2588307DC0EFF23A34089
:1004C0009A438B071B0E8407E40EA3401A43114B7B
:1004D000032424021B198408A4001A5118E00E4AB0
:1004E00003071B0F083B9B089B00D2588307DC0EB9
:1004F000FF23A3409A438B071B0E8407E40EA340FF
:100500001A43054B0407240F083CA408A4001A5101
:1005100010BD000000E100E01CED00E002E008C8B2
:10052000121F08C1002AFAD170477047002001E06D
:1005300001C1121F002AFBD1704700000348006967
:1005400080210843014908617047000000200240F3
:10055000014600E0491E0B48C068C007C00F0028D4
:1005600001D00029F6D10748C068142210400028A5
:1005700001D000207047002901D10220FAE70120B4
:10058000F8E700000020024010B5034601240B20CC
:100590000004FFF7DDFF0446012C17D10C48006969
:1005A000022108430A490861084643610069402165
:1005B0000843074908610B200004FFF7C9FF044600
:1005C000034800690221884301490861204610BDA3
:1005D000002002400548006980210840002804D01E
:1005E00003480249486003484860704700200240C1
:1005F00023016745AB89EFCD30B503460C46012595
:100600000C48406A012108430A49486208460069CB
:1006100001210843074908611C600B200004FFF713
:1006200097FF0546034800694008400001490861FA
:10063000284630BD002002402E4880690121084331
:100640002C49886108464069012149040843294929
:1006500048617D21C90028480068FFF747FD04462E
:10066000601E2649884200D90CE0601E244948617A
:100670000321081FFFF716FF00202149886107208A
:10068000086100BFFFF7F0FE1E48007801282DD159
:1006900000240025FFF764FD1A481B4942681B48E7
:1006A000FFF798FD174841681848FFF76DFD0446AD
:1006B000144841681448FFF767FD0546AC4208D16D
:1006C000002010490870FFF7DFFE62B6FFF718FE42
:1006D0000BE000BFBFF34F8F0D480E49C860BFF35A
:1006E0004F8F00BF00BF00BFFDE701E0FFF708FE2E
:1006F00000BFFEE700100240C0000020FFFFFF0027
:1007000000E000E0D4000020008400080010000891
:100710000400FA0500ED00E004480068002804D059
:1007200002480068401E014908607047DC00002054
:1007300060070008C00000202C0000001C05000815
:100740006007000800000020C00000002C05000821
:100750008C070008EC000020040400002C050008B1
:10076000006CDC0200000000000000000102030435
:10077000060708090000000000000000000000005B
:0C0780000000000000000000000000006D
:04000005080000B936
:00000001FF
