:020000040800F2
:1000000048090020950100089D0100089F01000893
:1000100000000000000000000000000000000000E0
:10002000000000000000000000000000A101000826
:100030000000000000000000A30100088105000886
:10004000A7010008A7010008A7010008A7010008F0
:10005000A7010008A7010008A7010008A7010008E0
:1000600000000000A7010008A7010008A701000880
:10007000A7010008A7010008A7010008A7010008C0
:10008000C5060008A701000800000000A70100083D
:10009000A7010008A7010008A7010008A7010008A0
:1000A000A7010008A7010008A7010008A701000890
:1000B000A7010008A701000800F002F800F03EF8D0
:1000C0000CA030C8083824182D18A246671EAB466D
:1000D00054465D46AC4201D100F030F87E460F3EFA
:1000E0000FCCB6460126334200D0FB1AA246AB46DF
:1000F000334318475007000080070000103A02D32E
:1001000078C878C1FAD8520701D330C830C101D5B8
:1001100004680C60704700000023002400250026BE
:10012000103A01D378C1FBD8520700D330C100D5B3
:100130000B6070471FB51FBD10B510BD00F037F93B
:100140001146FFF7F7FF00F059FB00F04FF903B439
:10015000FFF7F2FF03BC00F055F9000070B505464B
:100160000C46164602E00FCC0FC5103E102EFAD2F8
:10017000082E02D303CC03C5083E042E07D301CCBE
:1001800001C5361F03E021782970641C6D1C761EA2
:10019000F9D270BD0748804707480047FEE7FEE7F1
:1001A000FEE7FEE7FEE7FEE704480549054A064B81
:1001B0007047000049060008B90000084801002007
:1001C000480900204805002048050020F8B5042A09
:1001D0002CD3830712D00B78491C0370401C521E8D
:1001E00083070BD00B78491C0370401C521E8307F9
:1001F00004D00B78491C0370401C521E8B079B0FC8
:1002000005D0C91ADF002023DE1B08C90AE0FFF76A
:10021000A5FFF8BD1D4608C9FD401C46B4402C434F
:1002200010C0121F042AF5D2F308C91A521EF0D4C6
:100230000B78491C0370401C521EEAD40B78491CF1
:100240000370401C012AE4D409780170F8BD002233
:1002500003098B422CD3030A8B4211D300239C4603
:100260004EE003460B433CD4002243088B4231D37B
:1002700003098B421CD3030A8B4201D394463FE00F
:10028000C3098B4201D3CB01C01A524183098B426F
:1002900001D38B01C01A524143098B4201D34B0158
:1002A000C01A524103098B4201D30B01C01A5241BB
:1002B000C3088B4201D3CB00C01A524183088B4242
:1002C00001D38B00C01A524143088B4201D34B002B
:1002D000C01A5241411A00D201465241104670479D
:1002E0005DE0CA0F00D04942031000D340425340A2
:1002F00000229C4603098B422DD3030A8B4212D362
:10030000FC22890112BA030A8B420CD38901921193
:100310008B4208D3890192118B4204D389013AD0D0
:10032000921100E08909C3098B4201D3CB01C01AA5
:10033000524183098B4201D38B01C01A52414309B8
:100340008B4201D34B01C01A524103098B4201D3A6
:100350000B01C01A5241C3088B4201D3CB00C01A13
:10036000524183088B4201D38B00C01A5241D9D22B
:1003700043088B4201D34B00C01A5241411A00D2AC
:100380000146634652415B10104601D34042002BA8
:1003900000D54942704763465B1000D3404201B527
:1003A0000020C046C04602BD704770477047754682
:1003B00000F024F8AE46050069465346C008C00068
:1003C000854618B020B5FFF7EFFE60BC002749084E
:1003D000B6460026C0C5C0C5C0C5C0C5C0C5C0C5DD
:1003E000C0C5C0C5403D49008D46704710B50446A4
:1003F000C046C0462046FFF7AAFE10BD0048704721
:10040000E400002001491820ABBEFEE726000200F0
:10041000704700000349086000BF024909680029CD
:10042000FBD17047DC00002010B51948806901211C
:1004300008431749886100F0AFF87D21C9001548CD
:100440000068FFF704FF0446601E1349884200D984
:100450000CE0601E114948610321081F00F040F9BB
:1004600000200E4988610720086100BF08484069E4
:100470000121490408430649486108200921C906A9
:1004800088614B2208210920C00600F065F910BDE3
:1004900000100240C0000020FFFFFF0000E000E06D
:1004A00010B572B6C02211491148FFF78FFE0F48F0
:1004B0000068000C000401214907884215D10D484D
:1004C0000068032108430B490860084840680A494E
:1004D000086008460068094908600449086880F314
:1004E000088800BF05480068804710BD001000085C
:1004F0000000002000000140D4000020D8000020AF
:1005000011201D4908601D4840681C494860084684
:1005100040684860084640687B21C9038843174902
:100520004860084640680521C904084313494860EB
:10053000084600680121090608431049086000BF09
:100540000E4800680121490608400028F8D00B48F1
:1005500040688008800009494860084640680221D8
:1005600008430649486000BF044840680C21084021
:100570000828F9D170470000002002400010024016
:1005800004480068002804D002480068401E014961
:1005900008607047DC000020F8B500250024002624
:1005A0000027244840680C2108400546002D04D04F
:1005B000042D06D0082D2AD107E01F481F490860E6
:1005C00029E01D481D49086025E01A4840680F21B0
:1005D000890408400446174840680321C9030840BD
:1005E0000646A00C841C002E04D115486043134914
:1005F00008600BE00F48C06A0007000F471C39462F
:100600000D48FFF724FE60430C49086003E00A48E8
:100610000A49086000BF00BF06484068F021084052
:10062000000908490D5C05480068E8400349086076
:10063000F8BD00000010024000127A00C000002047
:1006400000093D00C400002010B51B4800680121CE
:100650000843194908600846406818490840164987
:100660004860084600681649084013490860084673
:1006700000680121890488430F49086008464068E2
:100680003F21090488430C4948600846C06A0009B4
:100690000001C8620846006BFF21543188430649B7
:1006A00008630846406B40084000486300208860AB
:1006B000FFF726FF10BD0000001002400CB8FF0835
:1006C000FFFFF6FE04480069C007C00F002802D0F3
:1006D000024801490861704700040040FEFF000025
:1006E00010B5002819DB1A4A03231B02D21883080D
:1006F0009B00D2588307DC0EFF23A3409A438B074D
:100700001B0E8407E40EA3401A43114B032424025A
:100710001B198408A4001A5118E00E4A03071B0F86
:10072000083B9B089B00D2588307DC0EFF23A340A5
:100730009A438B071B0E8407E40EA3401A43054B14
:100740000407240F083CA408A4001A5110BD00009F
:1007500000E100E01CED00E0F0B586B000230024CD
:100760000025039504950595C0251540AD09029512
:10077000302515402D0901950C2515400095009D4B
:100780000C2D03D185880D43858005E0009D082D43
:1007900002D185888D4385801DE0CD07ED0F002DAA
:1007A00016D05E000325B5402C439507AD0F5E00C3
:1007B000B540039E354303955F00029DBD40049EF6
:1007C0002E4304965F00019DBD40059E2E43059675
:1007D0005D1CEBB249100029DFD18568A543039E5B
:1007E000354385600568A543049E35430560C568AB
:1007F000A543059E3543C56006B0F0BDFFF714FE66
:100800001AE00E480078401CC0B20C490870052858
:100810000DDA08200921C9068861FA20FFF7FAFDE0
:10082000082007490881FA20FFF7F4FD04E00020C2
:1008300002490870FFF734FEE3E70000E000002003
:10084000200000487408000800000020C0000000DC
:10085000FC00000834090008C0000020240000004B
:10086000FC00000858090008E400002064080000AB
:100870001801000800000000000000000000000057
:100880000000000000000000000000000000000068
:100890000000000000000000000000000000000058
:1008A0000000000000000000000000000000000048
:1008B0000000000000000000000000000000000038
:1008C0000000000000000000000000000000000028
:1008D0000000000000000000000000000000000018
:1008E0000000000000000000000000000000000008
:1008F00000000000000000000000000000000000F8
:1009000000000000000000000000000000000000E7
:1009100000000000000000000000000000000000D7
:1009200000000000000000000000000000000000C7
:1009300000000000006CDC0200000000000000006D
:10094000010203040607080900000000000000007F
:0809500000000000000000009F
:04000005080000B936
:00000001FF
